:1000000006308A009A2E0000FF00030E8301A10033
:100010000A08A0008A010408A2007708A300780853
:10002000A4007908A5007A08A60003170D08031399
:10003000A70003170F080313A80003170C080313E6
:10004000A90003170E080313AA00831383128C3030
:100050008400001C2D280C184E2822088400230838
:10006000F7002408F8002508F9002608FA002708F8
:1000700003178D000313280803178F0003132908A3
:1000800003178C0003132A0803178E00031320089C
:100090008A00210E8300FF0E7F0E09008A110A12CA
:1000A00051288E01FF308F0006308E000130B807D6
:1000B0000318B90A0319BA0A0319BB0A0C108A11EA
:1000C0000A122D28202AC926C527552A0D05000009
:1000D00094138C1183162608831293000230941B0C
:1000E00078288C1D712800308316111B0130831273
:1000F000F800080014138316911591197D287718BC
:100100009112771C91161116111A84288312130864
:10011000F80008008316111411188C2883122C087B
:100120008316A6008312682083162308A600831274
:1001300068207808B7008316911491189D288312BF
:100140002C0801388316A500A60083126820F70149
:100150007A2078088316A4002408F8008312080087
:10016000831611141118B22883122C088316A600C6
:100170008312682050088316A60083126820510855
:100180008316A600831268207808B700831611151D
:100190001119C828831208004F08D6005308D60644
:1001A000D61FD72803110310CF1B03140A294F08A9
:1001B000D6005208D7004E08D7020319E528D61FEB
:1001C0000A290308013A83000A295308D7004F0877
:1001D000D7020319F128D61F0A290308013A830020
:1001E0000A295408D7005008D7020319FD28D61F42
:1001F0000A290308013A83000A295508D700510843
:10020000D70203190929D61F0A290308013A8300D6
:100210000A29031008008316111411180D298312DE
:100220002C088316A6008312682071088316A60086
:10023000831268207308F400F501F5017308831632
:10024000A600831268207208F400F5017208831674
:10025000A600831268207808B700831611151119BB
:100260002F298312080001308316A30083128A20ED
:100270007808F1007008FA006F08F2007008F300C7
:10028000710EF7000F30F70577080139F80078187C
:10029000502972088400831373188317001056299D
:1002A0007208840083137318831700146F08F80012
:1002B0007008FA007808F2007008F300710CF7007B
:1002C000F70CF70C1F30F70577080139F80078189C
:1002D000702972088400831373188317001176291C
:1002E0007208840083137318831700157008FA00CE
:1002F0006F08F2007008F300710CF700F70C3F3044
:10030000F70577080139F80078188D2972088400FC
:100310008313731883178010932972088400831342
:100320007318831780146F08F8007008FA007808B3
:10033000F2007008F300710EF700F70CF70C0330B1
:10034000F70577080139F8007818AD29720884009C
:100350008313731883178011B329720884008313E1
:100360007318831780157008FA006F08F200700880
:10037000F300F701F11B771477080139F8007818BA
:10038000C829720884008313731883170012CE29BA
:1003900072088400831373188317001608008316ED
:1003A000A208031DE1295030A30083128A200130E6
:1003B0007807F7000310F70D7708F800F429F429FF
:1003C0008316220BF1297030A30083128A2001309A
:1003D0007807F7000310F70D7708F800F429F429DF
:1003E0008316FF30F8008312080020308316BD000A
:1003F000B901BA01BB01BC013408FA003308F900A5
:100400003208F8003108F7000310771C152A350868
:10041000B90736080318360FBA0737080318370F1D
:10042000BB0738080318380FBC07BC0CBB0CBA0C50
:10043000B90CFA0CF90CF80CF70CBD0B042A83125A
:1004400008008318262AB93084008313F701F801C5
:10045000F901FA018316B901BA01BB01BC013808E0
:100460003704360435040319652A2030BD00031013
:10047000B10DB20DB30DB40DB90DBA0DBB0DBC0D60
:1004800038083C02031D4E2A37083B02031D4E2A42
:1004900036083A02031D4E2A35083902031C5F2A2A
:1004A0003508B9023608031C360FBA023708031C98
:1004B000370FBB023808031C380FBC020314F70DBA
:1004C000F80DF90DFA0DBD0B372A39088000840AA2
:1004D0003A088000840A3B088000840A3C088000B7
:1004E000831208008316B401B3010930B200B101D0
:1004F000B801B701B6012808B5008312F5217A08C2
:100500008316B0007908AF007808AE007708AD0018
:100510003008B4002F08B3002E08B2002D08B10037
:10052000B801B7010630B6007730B5008312F52167
:100530007A088316B0007908AF007808AE00770813
:10054000AD00F430AD07013003180230AE070030C3
:1005500003180130AF07003003180130B0078310D3
:100560003008B4002F08B3002E08B2002D08B100E7
:10057000B801B7010330B600E830B500831221227C
:100580007A088316AC007908AB007808AA007708CF
:10059000A900B401B3012708B2002608B1002C0855
:1005A000B8002B08B7002A08B6002908B500831246
:1005B000F5217A088316B0007908AF007808AE00FC
:1005C0007708AD0003102C0CFA002B0CF9002A0C54
:1005D000F800290CF700AD0778080318780FAE076C
:1005E00079080318790FAF077A0803187A0FB00754
:1005F00083103008B4002F08B3002E08B2002D0875
:10060000B100B801B7010330B600E830B50083127D
:10061000212208008316911491180C2B83122C08A8
:100620008316A6008312682083162208A600831270
:1006300068207808B7008316911491181D2B831237
:100640002C0801388316A500A6008312682001300B
:10065000F7007A2078088316A601A500A400A3015C
:10066000F70183127A2078088316A3042308F80080
:100670002408F9008312080083162408A600A701A5
:10068000A8012508A900FA01F700F70803194D2B66
:100690000310A60DA70DF70B482B01302607F80015
:1006A0002708FA000318FA0A7A08F90083120800EA
:1006B0007108F8007208FA0071088316A000720829
:1006C000A100A2018312CF21831620088400831386
:1006D00021188317840A800184037808800004307D
:1006E0007107F8007208FA000318FA0A7808A000E7
:1006F0007A08A1004630A30083128A2001307807CF
:100700008316A20020088400831321188317840A0B
:1007100080018403220880000A307107F800720803
:10072000FA000318FA0A7808A0007A08A100043039
:1007300071078400831372188317840A0008A300CA
:1007400084030008A20071088400831372188317C1
:10075000840A0008A50084030008A4002308A70059
:100760002208A6002408A8008312722283162008FB
:10077000840083132118831777088000840A78087F
:100780008000840A79088000840A7A088000063094
:100790007107F8007208FA000318FA0A7808A00036
:1007A0007A08A1005130A20083120A237908831627
:1007B000A3007808A2002308A5002208A400831241
:1007C0003C23831620088400831321188317840A8E
:1007D000790880008403780880000E307107F800E3
:1007E0007208FA000318FA0A7808A0007A08A10033
:1007F000063071078400831372188317840A000877
:10080000A30084030008A2007108840083137218F7
:100810008317840A0008A50084030008A4002308A5
:10082000A7002208A6002408A800831272228316BB
:100830002008840083132118831777088000840A16
:1008400078088000840A79088000840A7A08800089
:1008500002307107F8007208FA000318FA0A7808E3
:10086000A0007A08A1000130A2008312CF218316D4
:1008700020088400831321188317840A80018403CD
:100880007808800008307107F8007208FA00031831
:10089000FA0A7808A0007A08A1007130A200831239
:1008A0000A2379088316A3007808A2002308A5006C
:1008B0002208A40083123C2383162008840083139B
:1008C00021188317840A790880008403780880003F
:1008D00083126F088400831370188317801DAC2C5B
:1008E00008307107F8007208FA000318FA0A78084D
:1008F0008316A0007A08A100200884008313211821
:100900008317840A0008A30084030008A2000630AD
:1009100071078400831372188317840A0008FA0091
:10092000840300082202F7007A08031C7A0F9A2C2D
:1009300023089B2C2302FA007708A2007A08A30060
:1009400020088400831321188317840A2308800059
:10095000840322088000831212307107F8007208A5
:10096000FA000318FA0A78088316A0007A08A10092
:10097000083071078400831372188317840A0008F3
:10098000A30084030008A2000230710784008313CF
:1009900072188317840A0008A50084030008A400C5
:1009A0002308A7002208A6002408A80083127222A8
:1009B000831620088400831321188317770880008A
:1009C000840A78088000840A79088000840A7A08FA
:1009D0008000831208004A080138CB00D0014B0880
:1009E000D100B0203908B1003808B00013308316A8
:1009F000A30083128A2078080739031D1C2DAD0837
:100A0000031D052DAE0803191B2D30083802CB003D
:100A10003908CC003108031C310FCC022E084C02DF
:100A2000031C1B2D031D182D4B082D0203181B2D15
:100A30000030F800262DF62C0B30D0000130D1000C
:100A4000B020D001D101B0200130F8000800803082
:100A5000D0000130D100B020FF30D0000130D100F3
:100A6000B020D001D101B0209130D0003208D100A7
:100A7000B020D0010130D100B020FF30D000D10132
:100A8000B0208030D000D101B020D0010130D100A1
:100A9000B0203908B1003808B0008316A3018312D2
:100AA0008A20781C722DAD08031D592DAE0803193C
:100AB000712D30083802BE003908BF003108031C10
:100AC000310FBF022E083F02031C712D031D6C2D38
:100AD0003E082D020318712D2F14FF30F800F90085
:100AE000B12D4D2D3908B1003808B00013308316F0
:100AF000A30083128A2078080739031D9E2DAD08B4
:100B0000031D852DAE0803199D2D30083802C00045
:100B10003908C1003108031C310FC1022E084102FF
:100B2000031C9D2D031D982D40082D0203189D2D9B
:100B30002F14FF30F800F900B02D762D1E308316EB
:100B4000A20083120A237908BF007808BE000B3088
:100B5000D0000130D100B0203E08F8003F08F90075
:100B600079087908BF007808BE00103084003F087B
:100B7000C1003E08C000C8010408C7004810831B1C
:100B80004814410EF038C300C307E23EC400323EB1
:100B9000C60041080F39C407C407C607E93EC500AF
:100BA000C507C507400E0F39C507C607C50DC60DD9
:100BB000C609C60D40080F39C607C30D0730C2006D
:100BC0000A30C607C503031CE12DC507C403031C77
:100BD000E52DC407C303031CE92DC307C203031C8F
:100BE000ED2D4230840083130730470547138407F7
:100BF00046300402031947170008F700031D082EAA
:100C0000471B082E471A102EC719082E20300B2E0E
:100C1000C71547123030F70777080C1E0D2E9900C4
:100C2000840A471FF82D0D300C1E142E99000A302F
:100C30000C1E182E99003E102F183E142F10003055
:100C40003E180130F800F8080319812E62300317AE
:100C50008D0000308F0003130B08BE008B1383162A
:100C600003178C170C140000000083120313BE1B23
:100C70008B1703170C087F390319802E0313BE004E
:100C800003170D080313BF0003170F080313C00059
:100C90003E080C1E492E99003F0803178D000313D0
:100CA000400803178F0003130B08C1008B13831632
:100CB00003178C170C140000000083120313C11BD0
:100CC0008B1703170C0D0E0D7F390319802E03139C
:100CD000BE0003170D080313BF0003170F0803130B
:100CE000C0003E080C1E722E99003F0803178D00AD
:100CF0000313400803178F008D0A03198F0A2B2E48
:100D000003138A110A12DB2E3E308400831300087D
:100D10000319972E0230F800F701F70B8D2EF80B10
:100D20008C2E9730F700F70B932E800B8A2E8A11AA
:100D30000A12DE2E03081F398300713083168F00DC
:100D400090010F08031787110C3003139900A2308C
:100D50009800903083129800FF30AB00AB152B0841
:100D60008316870083122B162B08831687001330F7
:100D7000930028308312940083169417141383125F
:100D8000BB01BA01B901B801BD01BC01831603174B
:100D90000908C039890003131F129F12003003177E
:100DA0008800831287018801890183130A160313BF
:100DB00000280A12272DC830BE00842EDA2E6300C8
:101000000A30D0000430D1008A11B0208A15843013
:101010008316A3008A1183128A208A157808EF3973
:10102000CA008430D0004A08D1008A11B0208A1545
:101030000B30D0000130D1008A11B0208A15E401B4
:10104000E3010B30E2003630E100F0014A30EF00FE
:101050008A1133218A15F0014A30EF00F2014B303A
:10106000F1008A1158238A154A1C59284E30550719
:10107000F7005608F800023003180330F807570845
:10108000F900003003180130F9075808FA00003061
:1010900003180130FA077708E10778080318780F7A
:1010A000E20779080318790FE3077A0803187A0F23
:1010B000E4074A1D8428B2305507F7005608F800A7
:1010C000023003180330F8075708F90000300318FE
:1010D0000130F9075808FA00003003180130FA0708
:1010E0000310F70DF80DF90DFA0D7708E1077808F0
:1010F0000318780FE20779080318790FE3077A08D5
:1011000003187A0FE407A928CA1CA92894305507A8
:10111000F7005608F800023003180330F8075708A4
:10112000F900003003180130F9075808FA000030C0
:1011300003180130FA077708E10778080318780FD9
:10114000E20779080318790FE3077A0803187A0F82
:10115000E407CA1DCE2894305907F7005A08F80052
:10116000023003180330F8075B08F9000030031859
:101170000130F9075C08FA00003003180130FA0763
:101180007708E10778080318780FE2077908031851
:10119000790FE3077A0803187A0FE4074A1EF32849
:1011A00026305D07F7005E08F800023003180330B0
:1011B000F8075F08F900003003180130F9076008EC
:1011C000FA00003003180130FA077708E1077808C1
:1011D0000318780FE20779080318790FE3077A08F4
:1011E00003187A0FE4076408B6006308B5006208C4
:1011F000B4006108B3006108F7006208F8006308F2
:10120000F9006408FA007A08B6007908B500780891
:10121000B4007708B3000130D000E830D1008A1163
:10122000B0208A153608CD003508CC003408CB0034
:101230003308CA00CD08031D2D29CC08031D2D2914
:101240004B084E3C031C2D29031D2A294A081F3C2C
:10125000031C2D290030F800392BE801E701083084
:10126000E600E830E500F0014E30EF008A1133214E
:101270008A15F0014E30EF00F2014F30F1008A1173
:1012800058238A154E1C67294E305907F7005A0813
:10129000F800023003180330F8075B08F90000304B
:1012A00003180130F9075C08FA0000300318013018
:1012B000FA077708E50778080318780FE607790832
:1012C0000318790FE7077A0803187A0FE8074E1D0D
:1012D0009229B2305907F7005A08F8000230031873
:1012E0000330F8075B08F900003003180130F907F4
:1012F0005C08FA00003003180130FA070310F70DFC
:10130000F80DF90DFA0D7708E50778080318780F3E
:10131000E60779080318790FE7077A0803187A0FA8
:10132000E807B729CE1CB72994305907F7005A08A7
:10133000F800023003180330F8075B08F9000030AA
:1013400003180130F9075C08FA0000300318013077
:10135000FA077708E50778080318780FE607790891
:101360000318790FE7077A0803187A0FE807CE1DEC
:10137000DC2994305D07F7005E08F800023003189E
:101380000330F8075F08F900003003180130F9074F
:101390006008FA00003003180130FA077708E50703
:1013A00078080318780FE60779080318790FE7071C
:1013B0007A0803187A0FE8074E1E372B2630E50708
:1013C000023003180330E607003003180130E70746
:1013D000003003180130E8074D086802031C052A95
:1013E000031D022A4C086702031C052A031D022A5A
:1013F0004B086602031C052A031D022A65084A02DF
:101400000318052A0030F800392B65084A02E90064
:101410004B08EA006608031C660FEA024C08EB0062
:101420006708031C670FEB024D08EC006808031CFB
:10143000680FEC026C08F2006B08F1006A08F0001B
:101440006908EF005108F3008316B401B3010930B5
:10145000B200B101B801B701B6017308B5008A1135
:101460008312F5218A157A088316A3007908A20051
:101470007808A1007708A0002308B4002208B30070
:101480002108B2002008B100B801B7010630B6004B
:101490007730B5008A118312F5218A157A088316F0
:1014A000A3007908A2007808A1007708A000F43012
:1014B000A007013003180230A107003003180130E3
:1014C000A207003003180130A30783102308B400DB
:1014D0002208B3002108B2002008B100B801B7010A
:1014E0000330B600E830B5008A11831221228A1534
:1014F0007A08FE007908FD007808FC007708FB00F8
:1015000072088316B4007108B3007008B200831229
:101510006F088316B100B801B7010330B600E83098
:10152000B5008A118312F5218A157A088316A30063
:101530007908A2007808A1007708A00003107E0CAB
:10154000FA007D0CF9007C0CF8007B0CF700A0077A
:1015500078080318780FA10779080318790FA207F4
:101560007A0803187A0FA30783102308B40022080F
:10157000B3002108B2002008B1007E08B8007D0841
:10158000B7007C08B6007B08B5008A1183122122BF
:101590008A157808EE007708ED00CE1DD52A55088B
:1015A000ED0756080318560FEE076E08F0006D0899
:1015B000EF00F401F301F201F101F601F501EF088A
:1015C000031DE52AF00803191F2B01306F02F100FB
:1015D0007008F2000030031C0130F202F301F40144
:1015E000FB017208FC007308FD007408FE00FB0894
:1015F000031D032BFC08031D032BFD08031D032BF8
:10160000FE0803190C2B0310F40CF30CF20CF10C74
:10161000F50A0319F60AF02A7508FC00FB017108A7
:10162000F700F801F901FA0177087B04F700780860
:101630007C04F800F9007708F800222B222B0030F8
:10164000F800F9007908F0007808EF007130F10037
:101650007908F3007808F2008A110B218A154D08E9
:10166000B6004C08B5004B08B4004A08B30001307E
:10167000F8000130D000D1008A11B0208A15403026
:10168000CA008A11EB248A15F808031D4A2B003082
:10169000F800642B0130D0000230D1008A11B02054
:1016A0008A15CA018A11EB248A15F808031D5B2BE1
:1016B0000030F800642B0130D000E830D1008A11EE
:0E16C000B0208A150130F8008A110A16422D5A
:10200000353090008E01FF308F0006308E00831631
:102010000C14C03083128B040130BE00BE080319BB
:10202000222889308316A3000A1283128A200A16F6
:1020300078080138CA008930D0004A08D1000A1255
:10204000B0200A168830D000D1010A12B0200A163A
:102050008030D0000130D1000A12B0200A16FF30C3
:10206000D0000130D1000A12B0200A16D001D101EF
:102070000A12B0200A1691308316A3000A128312A6
:102080008A200A167808B200D0010130D1000A1265
:10209000B0200A16FF30D000D1010A12B0200A1673
:1020A0008030D000D1010A12B0200A1660308316A9
:1020B000A3000A1283128A200A1678081238CA006E
:1020C0006030D0004A08D1000A12B0200A16CD01B3
:1020D000CC01CB017D30CA004D08D1004C08D000A6
:1020E0004B08CF004A08CE00D501D401D301D2015C
:1020F0000A12CC200A1603189228B830D100FE30FC
:10210000D0007F30CF008730CE004D08D5004C087E
:10211000D4004B08D3004A08D2000A12CC200A1679
:10212000031C95280030F8004B294D08D1004C08BD
:10213000D0004B08CF004A08CE00D501D401D3010E
:102140008630D2004E0803191229D600520803190E
:102150001229D6070318B3287F30D602031C122990
:1021600003191229B7288130D607031812295608F7
:10217000F700F801F901FA014F08DA00DA17500800
:10218000D9005108D8001830D600D701581CE028D3
:102190005508FA07031CD228F90A031DD228F80AA9
:1021A0000319D7175408F907031CD928F80A03198B
:1021B000D7175308D000D0175008F8070318D717BF
:1021C000D70DF80CF90CFA0CDA0CD90CD80C03105A
:1021D000D60BC5280130F70703181229F81BF7287A
:1021E000DA0DFA0DF90DF80DF70303191229DA1FAC
:1021F0000829FA0A031D0829F90A031D0829F80A03
:10220000031D0829F80CF90CFA0CF70A0319122916
:102210004F08D7005308D706D71F1029F8171629DB
:10222000F8131629F701F801F901FA017A08D1002B
:102230007908D0007808CF007708CE008E30F700FC
:102240004E08F7024F08F9005008F800F917F70890
:10225000031935290310F908031D3129F80803195A
:102260003529F90CF80CF70B2A29CF1F3C29F8095E
:10227000F909F80A0319F90A7908CF007808CE009D
:102280004430F1007908F3007808F2000A120B21BB
:102290000A160130F8000130D000FF30D1000A12D8
:1022A000B0200A16CB013F30CA00CD014030CC002F
:1022B0008030D0000130D1000A12B0200A16FF3061
:1022C000D0000130D1000A12B0200A16D001D1018D
:1022D0000A12B0200A16FF30D0000630D1000A12D0
:1022E000B0200A1683308316A3000A1283128A20B4
:1022F0000A1678080438CF008330D0004F08D10088
:102300000A12B0200A16FF30D0000730D1000A129E
:10231000B0200A168130D0000130D1000A12B0205E
:102320000A168030D0000130D1000A12B0200A16FF
:102330009430D0006B30D1000A12B0200A168330DE
:10234000D000D1010A12B0200A163908B1003808AD
:10235000B00083308316A3000A1283128A200A1663
:10236000F808031DD029AD08031DB929AE080319CB
:10237000CF2930083802CF003908D0003108031CBB
:10238000310FD0022E085002031CCF29031DCC2987
:102390004F082D020318CF290030F8002B2AA92955
:1023A0008330D0000130D1000A12B0200A169230DA
:1023B0008316A3000A1283128A200A167808CE0018
:1023C0004A08840083134B1883174E087F39800016
:1023D0004C08840083134D188317F701CE1B771424
:1023E0007708013980008130D000D1010A12B02075
:1023F0000A16FF30D0000630D1000A12B0200A16AB
:1024000083308316A3000A1283128A200A167808E2
:10241000CF008330D0007808D1000A12B0200A160D
:10242000FF30D0000130D1000A12B0200A16D001CE
:102430000130D1000A12B0200A16FF30D000D101BD
:102440000A12B0200A168030D000D1010A12B02042
:102450000A160130F800F808031D312A0030F80090
:10246000452DB030CA00CC014130CB000630CD0044
:102470008316111411183A2A83122C088316A60009
:102480000A12831268200A164A088316A6000A1246
:10249000831268200A167808B700831691149118E1
:1024A0004F2A83122C080138CE008316A6000A1288
:1024B000831268200A164D08CD03013C0318722AC6
:1024C0004C08FA004B08CB0A0319CC0A840083138A
:1024D0007A1883170130F7000A127A200A16780852
:1024E00080005B2A4C08FA004B08CB0A0319CC0A7F
:1024F000840083137A188317F7010A127A200A16C8
:1025000078088000831611151119842AFF30831270
:10251000D0000130D1000A12B0200A164F30D0008E
:10252000D1010A12B0200A164E30D0002C30D10052
:102530000A12B0200A16FF30D000D1010A12B020D2
:102540000A16B630D000B430D1000A12B0200A16F4
:10255000C0080319AD2A0C30AE2A0030C700C801EC
:10256000C90149082F3C031CF62A47084902031CED
:10257000BD2A3F084802031DD82A490CF700F70C72
:10258000F70C1F30F7057708413E84008313490894
:102590000739F8000130F700F8080319D32A0310AF
:1025A000F70DF80BCF2A7708FF3A00058000F42AD0
:1025B000490CF700F70CF70C1F30F7057708413E80
:1025C000840083130008CA0049080739F8004A0844
:1025D000F700F8080319F02A0310F70CF80BEC2A9F
:1025E00077080139031DC80AC90AB12AB030CA00E8
:1025F000CC014130CB000630CD00831691149118E8
:10260000FF2A83122C088316A6000A128312682060
:102610000A164A088316A6000A12831268200A16B0
:102620004D08CD03003A03192A2B4C08FA004B0839
:10263000CB0A0319CC0A840083137A188317000885
:10264000CE008316A6000A12831268200A167808A4
:10265000B700102B8316111511192C2BFF30831284
:10266000D0000130D1000A12B0200A16D001D101E9
:102670000A12B0200A16FF30D000D1010A12B02091
:102680000A160930D000D1010A12B0200A16103003
:10269000D000D1010A12B0200A161130D000D101A9
:1026A0000A12B0200A162430D0000130D1000A12DC
:1026B000B0200A162530D000FF30D1000A12B02019
:1026C0000A167530D000D1010A12B0200A16FF3068
:1026D000D0000130D1000A12B0200A164E30D000CE
:1026E0002C30D1000A12B0200A164830D000D10197
:1026F0000A12B0200A163030D0002030D1000A1261
:10270000B0200A16FF30D000D1010A12B0200A16FC
:102710003030D0000930D1000A12B0200A165430EF
:10272000D000D1010A12B0200A163130D000043096
:10273000D1000A12B0200A163230D0000330D10086
:102740000A12B0200A164030D0008330D1000A129D
:10275000B0200A164630D0002530D1000A12B02031
:102760000A166030D000D1010A12B0200A162730B4
:10277000D000D1010A12B0200A165030D000063025
:10278000D1000A12B0200A165130D000D1010A122D
:10279000B0200A165230D0009630D1000A12B02074
:1027A0000A165630D0000830D1000A12B0200A169E
:1027B0005730D0003030D1000A12B0200A166130F4
:1027C000D000D1010A12B0200A166230D000D10127
:1027D0000A12B0200A166430D000D1010A12B020CB
:1027E0000A166530D000D1010A12B0200A166630F0
:1027F000D000A030D1000A12B0200A16FF30D0005D
:102800000130D1000A12B0200A162230D000323036
:10281000D1000A12B0200A164730D0001430D1007F
:102820000A12B0200A164930D000FF30D1000A1237
:10283000B0200A164A30D000D1010A12B0200A1680
:10284000FF30D000D1010A12B0200A167A30D00031
:102850000A30D1000A12B0200A167B30D000D10114
:102860000A12B0200A167830D0002130D1000A12A6
:10287000B0200A16FF30D0000130D1000A12B0207B
:102880000A162330D0003430D1000A12B0200A16C4
:102890004230D000D1010A12B0200A164430D000D4
:1028A000FF30D1000A12B0200A164530D000263081
:1028B000D1000A12B0200A164630D0000530D100EF
:1028C0000A12B0200A164030D000D1000A12B020FF
:1028D0000A160E30D0000630D1000A12B0200A16B7
:1028E0002030D0001A30D1000A12B0200A1643302E
:1028F000D0004030D1000A12B0200A16FF30D000BC
:10290000D1010A12B0200A163430D0000330D100B1
:102910000A12B0200A163530D0004430D1000A1215
:10292000B0200A16FF30D0000130D1000A12B020CA
:102930000A163130D0000430D1000A12B0200A1635
:102940004B30D0000930D1000A12B0200A164C30AA
:10295000D0000530D1000A12B0200A164D30D00048
:102960000430D1000A12B0200A16FF30D000D10185
:102970000A12B0200A164430D000D1010A12B02049
:102980000A164530D0002030D1000A12B0200A16B5
:102990004730D0000830D1000A12B0200A16483063
:1029A000D0002830D1000A12B0200A166730D000BB
:1029B000D1010A12B0200A167030D0000430D100C4
:1029C0000A12B0200A167130D0000130D1000A126C
:1029D000B0200A167230D000FE30D1000A12B020AA
:1029E0000A167630D000D1010A12B0200A167730CC
:1029F000D000D1010A12B0200A16FF30D0000130F9
:102A0000D1000A12B0200A160D30D0000130D100DA
:102A10000A12B0200A16FF30D000D1010A12B020ED
:102A20000A168030D0000130D1000A12B0200A16F8
:102A30000130D000F830D1000A12B0200A16FF3061
:102A4000D0000130D1000A12B0200A168E30D0001A
:102A50000130D1000A12B0200A16D0010130D10095
:102A60000A12B0200A16FF30D000D1010A12B0209D
:102A70000A168030D000D1010A12B0200A160A12BC
:102A80008A1500280A168A1178080130BF00F43030
:102A9000BE003F08AE003E08AD008A110A12D92ED2
:04400E00C42FFF3F7D
:00000001FF
;PIC16F886
;CRC=A7A7  CREATED="22-Mar-17 11:33"
